:020000040800F2
:100000000028002079170008091700080F170008BA
:10001000151700081B170008211700080000000032
:10002000000000000000000000000000271700088A
:1000300033170008000000003F1700084B170008A6
:10004000C1170008C1170008C1170008C117000830
:10005000C1170008C1170008C1170008C117000820
:10006000C1170008C1170008C1170008C117000810
:10007000C1170008C1170008C1170008C117000800
:10008000C1170008C1170008C1170008C1170008F0
:10009000C1170008C1170008C1170008C1170008E0
:1000A000C1170008C1170008C1170008C1170008D0
:1000B00059170008C117000800000000C117000808
:1000C000C11700080000000000000000C117000870
:1000D00000000000C1170008C11700080000000060
:1000E000C1170008C1170008C11700080000000070
:1000F0000000000000000000000000000000000000
:0C01000000000000000000005FF808F1A3
:10010C0010B5054C237833B9044B13B10448AFF345
:10011C0000800123237010BD24000020000000008B
:10012C00F02D000808B5034B1BB103490348AFF38E
:10013C00008008BD0000000028000020F02D000801
:10014C0080B483B000AF00237B603DE023497A6824
:10015C001346DB009B1A9B000B4400221A601F49BC
:10016C007A681346DB009B1A9B000B440433322243
:10017C001A601A497A681346DB009B1A9B000B44E1
:10018C00083301221A6015497A681346DB009B1A62
:10019C009B000B440C3301221A6010497A681346F9
:1001AC00DB009B1A9B000B44103301221A600B4995
:1001BC007A681346DB009B1A9B000B441433012214
:1001CC001A607B6801337B607B68022BBEDD00BF4D
:1001DC0000BF0C37BD4680BC704700BFAC00002090
:1001EC0080B483B000AF78600D497A681346DB00A9
:1001FC009B1A9B000B441B68012B0AD108497A6897
:10020C001346DB009B1A9B000B4400221A6001234F
:10021C0000E0002318460C37BD4680BC704700BF79
:10022C00AC00002080B483B000AF786006497A68D7
:10023C001346DB009B1A9B000B4401221A6000BF83
:10024C000C37BD4680BC7047AC00002080B582B036
:10025C0000AF00237B6056E1AF497A681346DB00A0
:10026C009B1A9B000B440C331968AB487A681346F5
:10027C00DB009B1A9B00034408331960A6497A687B
:10028C001346DB009B1A9B000B4410331968A248E1
:10029C007A681346DB009B1A9B0003440C331960ED
:1002AC009E4A7B6852F833209C497B68DB000B44E8
:1002BC009B881946104601F069FD0346184696497D
:1002CC007A681346DB009B1A9B000B4410331860B2
:1002DC0091497A681346DB009B1A9B000B44083348
:1002EC0019688D487A681346DB009B1A9B000344FF
:1002FC000C331B68994240F0FC8087497A6813469E
:10030C00DB009B1A9B000B440C33196882487A68FB
:10031C001346DB009B1A9B00034410331B68994265
:10032C0040F0E7807C497A681346DB009B1A9B00FF
:10033C000B441033196878487A681346DB009B1A13
:10034C009B0003441433196073497A681346DB002D
:10035C009B1A9B000B4418331B68032B00F2D080B4
:10036C0001A252F823F000BFE30300089B0300082E
:10037C00850300087B04000867497A681346DB0094
:10038C009B1A9B000B44183301221A60B8E0624997
:10039C007A681346DB009B1A9B000B4414331B68D2
:1003AC00002B40F0A8807868FFF73CFF5A497A6828
:1003BC001346DB009B1A9B000B44043332221A6059
:1003CC0055497A681346DB009B1A9B000B44183383
:1003DC0000221A608FE050497A681346DB009B1AA2
:1003EC009B000B4414331B68012B0AD14A497A68D1
:1003FC001346DB009B1A9B000B44183301221A6036
:10040C007BE045497A681346DB009B1A9B000B4442
:10041C0004331B68591E40487A681346DB009B1A4C
:10042C009B000344043319603B497A681346DB0094
:10043C009B1A9B000B4404331B68002B5DD178681E
:10044C00FFF7F0FE34497A681346DB009B1A9B00D9
:10045C000B44043332221A602F497A681346DB00AE
:10046C009B1A9B000B44183303221A6045E02A495F
:10047C007A681346DB009B1A9B000B4414331B68F1
:10048C00012B0AD124497A681346DB009B1A9B0086
:10049C000B44183301221A6031E01F497A68134665
:1004AC00DB009B1A9B000B4404331B68591E1A4833
:1004BC007A681346DB009B1A9B00034404331960D3
:1004CC0015497A681346DB009B1A9B000B440433D6
:1004DC001B68002B13D17868FFF7A4FE0E497A68CD
:1004EC001346DB009B1A9B000B44043332221A6028
:1004FC0005E000BF04E000BF02E000BF00E000BF69
:10050C007B6801337B607B68022B7FF7A5AE00BF55
:10051C0000BF0837BD4680BDAC000020082E000887
:10052C0080B500AF4FF40051044801F05EFC4FF46D
:10053C007A71002001F038F800BF80BD000801403E
:10054C0080B500AF4FF47A71002001F02DF800BF98
:10055C0080BD000080B400AF034B41F6FE721A61FF
:10056C0000BFBD4680BC70470008014080B400AF9E
:10057C00054B4FF499625A61034B41F636321A61BE
:10058C0000BFBD4680BC70470008014080B400AF7E
:10059C00054B40F2A4425A61034B41F65A321A61A0
:1005AC0000BFBD4680BC70470008014080B400AF5E
:1005BC00054B41F212225A61034B40F6EC521A6180
:1005CC0000BFBD4680BC70470008014080B400AF3E
:1005DC00054B40F612125A61034B41F2EC621A6160
:1005EC0000BFBD4680BC70470008014080B584B098
:1005FC0000AF0346FB710023FB601EE097F9073048
:10060C00002B05DA01220121104801F0D6FB04E091
:10061C00002201210D4801F0D0FBFB795B00FB713E
:10062C0000220221094801F0C8FB012202210748DF
:10063C0001F0C3FBFB680133FB60FB68072BDDDDBE
:10064C0000BF00BF1037BD4680BD00BF000C01408D
:10065C0090B583B000AF0446084611461A462346AF
:10066C00FB710346BB710B467B7113463B71002239
:10067C000421124801F0A1FB3B79114AD35C1846C6
:10068C00FFF7B4FF7B790E4AD35C1846FFF7AEFF39
:10069C00BB790B4AD35C1846FFF7A8FFFB79084AD5
:1006AC00D35C1846FFF7A2FF01220421034801F096
:1006BC0084FB00BF0C37BD4690BD00BF000C014051
:1006CC00202E000880B500AF01F076F800F02AF873
:1006DC0000F0B0F800F062F80D4801F0CBFF00F02C
:1006EC006DFC012201210B4800F09CFC0522052128
:1006FC00094800F097FC64226421084800F092FC41
:10070C0001220121064800F08DFC00F0D7FEFCE729
:10071C0000010020FD150008590200082D050008F5
:10072C00110C000880B590B000AF07F11803282217
:10073C000021184602F04EFB3B1D00221A605A6045
:10074C009A60DA601A610223BB610123BB62102339
:10075C00FB6200237B6307F11803184601F05EFB74
:10076C000346002B01D000F0D1F80F237B6000234F
:10077C00BB600023FB6000233B6100237B613B1DBE
:10078C000021184601F0CAFD0346002B01D000F0F1
:10079C00BDF800BF4037BD4680BD000080B586B0B7
:1007AC0000AF07F1080300221A605A609A60DA6001
:1007BC003B4600221A605A601D4B4FF080421A6073
:1007CC001B4B41F63F725A60194B00229A60184B32
:1007DC000922DA60164B00221A61154B00229A612D
:1007EC00134801F0F7FE0346002B01D000F08EF801
:1007FC004FF48053BB6007F1080319460C4802F014
:10080C0075F80346002B01D000F080F800233B6004
:10081C0000237B603B461946054802F04DFA03461F
:10082C00002B01D000F072F800BF1837BD4680BD18
:10083C000001002080B586B000AF07F1080300224C
:10084C001A605A609A60DA60284B9B69274A43F019
:10085C0004039361254B9B6903F004037B607B6865
:10086C00224B9B69214A43F0080393611F4B9B6900
:10087C0003F008033B603B68002243F6FE711C4802
:10088C0001F09BFA002207211A4801F096FA4CF26B
:10089C000103BB600023FB6001233B6107F10803EC
:1008AC001946134801F0F8F843F6FE73BB600123B8
:1008BC00FB6000233B6102237B6107F108031946AF
:1008CC000B4801F0E9F80723BB600123FB60002310
:1008DC003B6102237B6107F108031946054801F0CF
:1008EC00DBF800BF1837BD4680BD00BF00100240CA
:1008FC0000080140000C014080B582B000AF786068
:10090C0000F068FB00BF0837BD4680BD80B400AF67
:10091C0072B600BFFEE7000080B582B000AF786011
:10092C003960052000F024FE0346002B1DD0FFF794
:10093C0011FE104B1B6801335A4203F0030302F003
:10094C00030258BF53420B4A13600A4B1B685B00EF
:10095C003A6813441B8800221946786801F02DFA76
:10096C004FF4FA71052000F01FFE00BF0837BD469A
:10097C0080BD00BF4400002080B582B000AF954B15
:10098C001B68032B71D0032B00F39B80012B02D02F
:10099C00022B35D095E090499048FFF7BDFF012020
:1009AC00FFF71EFC0346002B0BD08D4B1B6801334D
:1009BC008B4A13608A4B1B68632B02DD884B012228
:1009CC001A600220FFF70CFC0346002B03D0844B6B
:1009DC001B68844A13600020FFF702FC0346002BBF
:1009EC0077D07C4B02221A607F4B1B687C4A1360C9
:1009FC007E4B00221A600A21052000F0D5FD68E02C
:100A0C007B497648FFF788FF0120FFF7E9FB034697
:100A1C00002B0BD0724B1B680133714A1360704B67
:100A2C001B68632B02DD6E4B01221A600220FFF75C
:100A3C00D7FB0346002B03D0694B1B686A4A136033
:100A4C000020FFF7CDFB0346002B44D0614B032263
:100A5C001A60684B1B68624A1360644B00221A6070
:100A6C000A21052000F0A0FD35E063495B48FFF743
:100A7C0053FF0120FFF7B4FB0346002B0BD0584B60
:100A8C001B680133564A1360554B1B68632B02DD00
:100A9C00534B01221A600220FFF7A2FB0346002BE6
:100AAC0003D04F4B1B68534A13600020FFF798FB91
:100ABC000346002B11D0514B01221A6000F04CF967
:100ACC000BE0444B01221A60464B1B68444A1360EE
:100ADC0004E000BF02E000BF00E000BF404B1B6819
:100AEC00474A82FB03129210DB17D31A7B713C4BE3
:100AFC001A68434B83FB02139910D317C91A0B4680
:100B0C009B000B445B00D11A0B463B710023FB711D
:100B1C000023BB712F4B1B68012B18D1314B1B6869
:100B2C00374A82FB03129210DB17D31AFB712D4B41
:100B3C001A68334B83FB02139910D317C91A0B464F
:100B4C009B000B445B00D11A0B46BB7138E0214B68
:100B5C001B68022B18D1244B1B68294A82FB0312F9
:100B6C009210DB17D31AFB711F4B1A68244B83FBB3
:100B7C0002139910D317C91A0B469B000B445B0048
:100B8C00D11A0B46BB711BE0124B1B68032B17D100
:100B9C00184B1B681A4A82FB03129210DB17D31AEC
:100BAC00FB71144B1A68164B83FB02139910D31765
:100BBC00C91A0B469B000B445B00D11A0B46BB7148
:100BCC00BB79FA7939797879FFF742FD00BF08379C
:100BDC00BD4680BD100000202C2E000800080140EE
:100BEC0040000020040000200800002044000020E9
:100BFC00342E00080C0000203C2E000800000020C1
:100C0C006766666680B500AF204B1B68032B22D04D
:100C1C00032B32DC012B02D0022B2BD02DE000F069
:100C2C00BFF80020FFF7DCFA0346002B29D0174B46
:100C3C0003221A60164B01221A60164B1B68164AC7
:100C4C001360164B00221A60FFF784FC0A21052062
:100C5C0000F0AAFC15E000F025F80020FFF7C0FA20
:100C6C000346002B0FD0094B02221A600C4B0222B8
:100C7C001A6008E0FFF780FE06E0044B01221A60C0
:100C8C0002E000BF00E000BF00BF80BD00000020FC
:100C9C001000002004000020400000204400002030
:100CAC004800002080B500AF2A4B1B68023B032B89
:100CBC003AD801A252F823F0D50C0008ED0C00082C
:100CCC00050D00081D0D0008FFF770FC0120FFF753
:100CDC0087FA0346002B31D01E4B03221A602DE0FD
:100CEC00FFF774FC0120FFF77BFA0346002B27D09B
:100CFC00184B04221A6023E0FFF738FC0120FFF7A1
:100D0C006FFA0346002B1DD0124B05221A6019E016
:100D1C00FFF73CFC0120FFF763FA0346002B13D0CE
:100D2C000C4B02221A600FE00120FFF759FA034620
:100D3C00002B0BD0074B02221A6007E000BF06E025
:100D4C0000BF04E000BF02E000BF00E000BF00BF36
:100D5C0080BD00BF4800002080B500AF0B4B0122C6
:100D6C001A600B4B1B680B4A13600B4B1B680B4A2E
:100D7C0013604FF47A71032000F016FC4FF47A7173
:100D8C00042000F011FC00BF80BD00BF1400002047
:100D9C00040000204C0000200C000020500000201B
:100DAC0080B582B000AF032000F0E2FB0346002BBD
:100DBC000DD07B4B1B68002B04DD794B1B68013B72
:100DCC00774A13604FF47A71032000F0EDFB042096
:100DDC0000F0CEFB0346002B0DD0724B1B68002B92
:100DEC0004DD704B1B68013B6E4A13604FF47A7143
:100DFC00042000F0D9FB6C4B1B68013B042B00F268
:100E0C00948001A252F823F0290E0008490E000824
:100E1C007D0E0008B90E0008ED0E0008FFF79AFBD6
:100E2C00614B02221A60614B1B684FF47A7202FB11
:100E3C0003F31946062000F0B7FB76E0FFF7B6FB8C
:100E4C00062000F095FB0346002B67D0564B03227F
:100E5C001A60574B1B68534A1360554B1B684FF471
:100E6C007A7202FB03F31946062000F09DFB55E055
:100E7C00FFF7ACFB062000F07BFB0346002B4FD0AA
:100E8C00494B04221A60494B1B68454A1360494B75
:100E9C001B68444A1360454B1B684FF47A7202FB83
:100EAC0003F31946062000F07FFB39E0FFF75EFBE9
:100EBC00062000F05DFB0346002B33D03A4B052295
:100ECC001A603B4B1B68364A1360394B1B684FF456
:100EDC007A7202FB03F31946062000F065FB21E051
:100EEC00FFF754FB062000F043FB0346002B1BD0FE
:100EFC002D4B02221A602F4B1B68294A13602B4B77
:100F0C001B68284A1360294B1B684FF47A7202FB4A
:100F1C0003F31946062000F047FB05E000BF04E090
:100F2C0000BF02E000BF00E000BF1D4B1B68224A5F
:100F3C0082FB03129210DB17D31AFB71184B1A6841
:100F4C001D4B83FB02139910D317C91A0B469B0038
:100F5C000B445B00D11A0B46BB71124B1B68164A33
:100F6C0082FB03129210DB17D31A7B710D4B1A689C
:100F7C00114B83FB02139910D317C91A0B469B0014
:100F8C000B445B00D11A0B463B713B797A79B979EA
:100F9C00F879FFF75DFB00BF0837BD4680BD00BF89
:100FAC004C00002050000020140000200C000020F9
:100FBC0008000020040000206766666680B500AF5C
:100FCC0000F0BCFAFFF7BCF8FFF7C6FEFFF7B8FA63
:100FDC0000BF80BD80B400AF104B1B6801330F4ABB
:100FEC0013600F4B1B68002B13D00D4B5B68002B51
:100FFC000FD10B4B9B68002B04DD094B9B68013B0D
:10100C00074A9360064B9B68002B02DC044B0122C1
:10101C005A6000BFBD4680BC704700BF5400002022
:10102C005C00002080B588B000AFF860B9607A60D1
:10103C000023FB6100233B610023BB610023BB61E8
:10104C0033E1A249BA6913469B0013449B000B443D
:10105C0008331B68FA691344FB61FA69BB689A424E
:10106C0040F3C1809949BA6913469B0013449B0015
:10107C000B4408331B68FA69D31ABA68D31A3B615C
:10108C00FA69BB68D11A9148BA6913469B0013449C
:10109C009B0003440833196003237B614CE07B699C
:1010AC005A1E8A4913469B0013449B000B44083379
:1010BC00196886487A6913469B0013449B000344C5
:1010CC00083319607B695A1E804913469B001344F0
:1010DC009B000B440C3319687C487A6913469B00BF
:1010EC0013449B0003440C3319607B695A1E7749E7
:1010FC0013469B0013449B000B44196873487A6990
:10110C0013469B0013449B00034419607B695A1ED1
:10111C006E4913469B0013449B000B441033196813
:10112C006A487A6913469B0013449B0003441033AE
:10113C0019607B69013B7B617A69BB699A42AEDCC1
:10114C006249BA6913469B0013449B000B44083355
:10115C003A691A605D49BA6913469B0013449B00B7
:10116C000B440C337A681A605849BA6913469B00D1
:10117C0013449B000B44FA681A605449BA6913462D
:10118C009B0013449B000B4408331B68002B0ADCA8
:10119C004E49BA6913469B0013449B000B4404331D
:1011AC0001221A6009E04949BA6913469B001344AD
:1011BC009B000B44043300221A6000F0A7F901468F
:1011CC004248BA6913469B0013449B0003441033F6
:1011DC0019603E49BA6913469B0013449B000B44AB
:1011EC0010331B686EE03949BA6913469B001344EF
:1011FC009B000B441B68002B54D1BA68FB69D11AB5
:10120C003248BA6913469B0013449B0003440833CD
:10121C0019602E49BA6913469B0013449B000B447A
:10122C000C337A681A602949BA6913469B00134437
:10123C009B000B44FA681A602449BA6913469B0058
:10124C0013449B000B4408331B68002B0ADC1F491A
:10125C00BA6913469B0013449B000B4404330122D0
:10126C001A6009E01949BA6913469B0013449B00A4
:10127C000B44043300221A6000F048F9014613486D
:10128C00BA6913469B0013449B0003441033196046
:10129C000E49BA6913469B0013449B000B44103350
:1012AC001B680FE0BB690133BB61BB69032B7FF784
:1012BC00C8AE0649BA6913469B0013449B000B4405
:1012CC0010331B6818462037BD4680BD5C000020DB
:1012DC0080B487B000AF78600023FB6000237B6193
:1012EC007B68002B00F0E18000237B61D9E0724920
:1012FC007A6913469B0013449B000B4410331B6804
:10130C007A689A4240F0CA800123FB607B69002B0B
:10131C002BD07B69022B28DC7B695A1C664913464F
:10132C009B0013449B000B441B68002B1DD07B6956
:10133C005A1C614913469B0013449B000B44083311
:10134C0019685D487A6913469B0013449B0003445B
:10135C0008331B687A6901321944574813469B00BD
:10136C0013449B000344083319607B693B615FE0C5
:10137C003B695A1C504913469B0013449B000B4479
:10138C0019684D483A6913469B0013449B0003446B
:10139C0019603B695A1C484913469B0013449B0037
:1013AC000B440C33196844483A6913469B001344A8
:1013BC009B0003440C3319603B695A1C3E4913468D
:1013CC009B0013449B000B44083319683A483A6954
:1013DC0013469B0013449B000344083319603B697C
:1013EC005A1C354913469B0013449B000B44043391
:1013FC00196831483A6913469B0013449B00034417
:10140C00043319603B695A1C2B4913469B00134447
:10141C009B000B441033196827483A6913469B000C
:10142C0013449B000344103319603B6901333B6147
:10143C003B69022B9CDD20493A6913469B001344FF
:10144C009B000B4400221A601B493A6913469B000F
:10145C0013449B000B440C3300221A6016493A6962
:10146C0013469B0013449B000B44083300221A6064
:10147C0011493A6913469B0013449B000B440433F7
:10148C0000221A600C493A6913469B0013449B00D6
:10149C000B44103300221A60FB6807E07B690133B0
:1014AC007B617B69032B7FF722AFFB6818461C37E7
:1014BC00BD4680BC704700BF5C000020B0B586B054
:1014CC0000AF114B5B68002B19DD0F4B1B68984765
:1014DC000D4B00225A600C4B3C1D1D460FCD0FC40A
:1014EC002B6823607B691846FFF7F2FE3B69002BE3
:1014FC0005D07B6839693A691846FFF793FD00BF40
:10150C001837BD46B0BD00BF5C00002080B400AFF2
:10151C00094B1B680133084A1360074B1B68002BEF
:10152C0004D1054B1B680133034A1360024B1B6843
:10153C001846BD4680BC70475800002080B483B06C
:10154C0000AF00237B6008E0084A7B68DB00134493
:10155C0000225A607B6801337B607B68092BF3DDCA
:10156C0000BF00BF0C37BD4680BC7047480100204F
:10157C0080B483B000AF78600A4A7B68DB00134408
:10158C005B68002B07D0074A7B68DB001344002202
:10159C005A60012300E0002318460C37BD4680BC7E
:1015AC00704700BF4801002080B483B000AF786062
:1015BC0039607B68092B11DC3B680B4A82FB0312F8
:1015CC009210DB17D21A09497B6841F83320074A7D
:1015DC007B68DB00134400225A6000E000BF0C372C
:1015EC00BD4680BC704700BF676666664801002038
:1015FC0080B483B000AF00237B601DE0134A7B688E
:10160C0052F83330002B14DD104A7B6852F833301B
:10161C005A1E0E497B6841F833200C4A7B6852F8FD
:10162C003330002B05DC094A7B68DB0013440122B4
:10163C005A607B6801337B607B68092BDEDD00BF61
:10164C0000BF0C37BD4680BC704700BF480100206E
:10165C0080B485B000AF154B9B69144A43F001036D
:10166C009361124B9B6903F00103BB60BB680F4B8A
:10167C00DB690E4A43F08053D3610C4BDB6903F0FA
:10168C0080537B607B680A4B5B68FB60FB6823F0D4
:10169C00E063FB60FB6843F08063FB60044AFB681B
:1016AC00536000BF1437BD4680BC70470010024029
:1016BC000000014080B584B000AF78607B681B6887
:1016CC00B3F1804F13D10C4BDB690B4A43F0010390
:1016DC00D361094BDB6903F00103FB60FB6800225B
:1016EC0000211C2000F0A1F91C2000F0BAF900BF69
:1016FC001037BD4680BD00BF0010024080B400AF63
:10170C00FEE780B400AFFEE780B400AFFEE780B424
:10171C0000AFFEE780B400AFFEE780B400AF00BFBF
:10172C00BD4680BC704780B400AF00BFBD4680BCD6
:10173C00704780B400AF00BFBD4680BC704780B519
:10174C0000AF00F07FF800BF80BD000080B500AF97
:10175C00024800F0DBFF00BF80BD00BF000100208D
:10176C0080B400AF00BFBD4680BC7047FFF7F8FFE8
:10177C000B480C490C4A002302E0D458C4500433E3
:10178C00C4188C42F9D3094A094C002301E01360B8
:10179C000432A242FBD301F0F9FAFEF793FF704733
:1017AC000000002024000020702E000824000020DF
:1017BC009C010020FEE7000080B500AF084B1B68C1
:1017CC00074A43F010031360032000F023F90F20A5
:1017DC0000F008F8FFF73CFF0023184680BD00BF5F
:1017EC000020024080B582B000AF7860124B1A68BE
:1017FC00124B1B7819464FF47A73B3FBF1F3B2FB1F
:10180C00F3F3184600F03BF90346002B01D00123FB
:10181C000EE07B680F2B0AD8002279684FF0FF305E
:10182C0000F003F9064A7B681360002300E00123F3
:10183C0018460837BD4680BD180000202000002047
:10184C001C00002080B400AF054B1B781A46054BDA
:10185C001B681344034A136000BFBD4680BC70472D
:10186C00200000209801002080B400AF024B1B68C0
:10187C001846BD4680BC70479801002080B485B0E6
:10188C0000AF78607B6803F00703FB600C4BDB68F0
:10189C00BB60BA684FF6FF031340BB60FB681A02CB
:1018AC00BB68134343F0BF6343F40033BB60044A8B
:1018BC00BB68D36000BF1437BD4680BC704700BF07
:1018CC0000ED00E080B400AF044BDB681B0A03F0B2
:1018DC0007031846BD4680BC704700BF00ED00E012
:1018EC0080B483B000AF0346FB7197F90730002B2F
:1018FC000BDBFB7903F01F02064997F907305B09F4
:10190C00012000FA02F241F8232000BF0C37BD463B
:10191C0080BC704700E100E080B483B000AF0346A8
:10192C003960FB7197F90730002B0ADB3B68DAB2A0
:10193C000C4997F907301201D2B20B4483F80023FB
:10194C000AE03B68DAB20849FB7903F00F03043B69
:10195C001201D2B20B441A7600BF0C37BD4680BCC4
:10196C00704700BF00E100E000ED00E080B489B0FA
:10197C0000AFF860B9607A60FB6803F00703FB61A5
:10198C00FB69C3F10703042B28BF0423BB61FB696C
:10199C000433062B02D9FB69033B00E000237B6177
:1019AC004FF0FF32BB6902FA03F3DA43BB681A400B
:1019BC007B699A404FF0FF317B6901FA03F3D943FD
:1019CC007B680B40134318462437BD4680BC7047D8
:1019DC0080B582B000AF78607B68013BB3F1807F4B
:1019EC0001D301230FE00A4A7B68013B53600F21AE
:1019FC004FF0FF30FFF790FF054B00229A60044B2D
:101A0C0007221A60002318460837BD4680BD00BF68
:101A1C0010E000E080B582B000AF78607868FFF726
:101A2C002DFF00BF0837BD4680BD80B586B000AF26
:101A3C000346B9607A60FB7300237B61FFF742FFBA
:101A4C0078617A68B9687869FFF790FF024697F970
:101A5C000F3011461846FFF75FFF00BF1837BD4621
:101A6C0080BD80B582B000AF0346FB7197F907309B
:101A7C001846FFF735FF00BF0837BD4680BD80B55F
:101A8C0082B000AF78607868FFF7A2FF0346184673
:101A9C000837BD4680BD000080B48BB000AF7860C5
:101AAC00396000237B6200233B6248E101227B6AA0
:101ABC0002FA03F3FB613B681B68FA691340BB61D4
:101ACC00BA69FB699A4240F037813B685B68A34A6C
:101ADC0093425ED0A14A934275D8A14A934258D002
:101AEC009F4A93426FD89F4A934252D09D4A934249
:101AFC0069D89D4A93424CD09B4A934263D89B4AE7
:101B0C00934246D0994A93425DD8122B2AD8122B75
:101B1C0059D801A252F823F09F1B0008791B00082A
:101B2C008B1B0008CD1B0008D31B0008D31B00081F
:101B3C00D31B0008D31B0008D31B0008D31B0008C1
:101B4C00D31B0008D31B0008D31B0008D31B0008B1
:101B5C00D31B0008D31B0008D31B0008811B0008F3
:101B6C00951B0008824A934213D02CE03B68DB683B
:101B7C003B6229E03B68DB6804333B6224E03B6852
:101B8C00DB6808333B621FE03B68DB680C333B626D
:101B9C001AE03B689B68002B02D104233B6213E0E4
:101BAC003B689B68012B05D108233B627B68FA6973
:101BBC001A6109E008233B627B68FA695A6103E009
:101BCC0000233B6200E000BFBB69FF2B01D87B68A0
:101BDC0001E07B6804337B61BB69FF2B02D87B6A15
:101BEC009B0002E07B6A083B9B003B617B691A68A7
:101BFC000F213B6901FA03F3DB431A40396A3B6955
:101C0C0001FA03F31A437B691A603B685B6803F0C3
:101C1C008053002B00F09080564B9B69554A43F043
:101C2C0001039361534B9B6903F00103BB60BB68D9
:101C3C00514A7B6A9B08023352F82330FB607B6A63
:101C4C0003F003039B000F2202FA03F3DB43FA6851
:101C5C001340FB607B68494A93420DD07B68484A2D
:101C6C00934207D07B68474A934201D1022304E098
:101C7C00032302E0012300E000237A6A02F003024E
:101C8C0092009340FA681343FB603B497B6A9B08C4
:101C9C000233FA6841F823203B685B6803F4801335
:101CAC00002B06D0384B9A683749BB6913438B60BD
:101CBC0006E0354B9A68BB69DB43334913408B60B4
:101CCC003B685B6803F40013002B06D02E4BDA68DC
:101CDC002D49BB691343CB6006E02B4BDA68BB691B
:101CEC00DB4329491340CB603B685B6803F400334A
:101CFC00002B06D0244B5A682349BB6913434B6015
:101D0C0006E0214B5A68BB69DB431F4913404B600B
:101D1C003B685B6803F48033002B06D01A4B1A68BF
:101D2C001949BB6913430B6006E0174B1A68BB6972
:101D3C00DB43154913400B607B6A01337B623B68C4
:101D4C001A687B6A22FA03F3002B7FF4AFAE00BF54
:101D5C0000BF2C37BD4680BC704700BF000032105E
:101D6C0000003110000022100000211000001210A1
:101D7C00000011100010024000000140000801405A
:101D8C00000C0140001001400004014080B485B0FB
:101D9C0000AF78600B467B807B689A687B88134029
:101DAC00002B02D00123FB7301E00023FB73FB7BB0
:101DBC0018461437BD4680BC704780B483B000AF62
:101DCC0078600B467B8013467B707B78002B03D0AE
:101DDC007A887B681A6103E07B881A047B681A6135
:101DEC0000BF0C37BD4680BC704780B485B000AFD7
:101DFC0078600B467B807B68DB68FB607A88FB68CD
:101E0C0013401A04FB68D9437B880B401A437B6848
:101E1C001A6100BF1437BD4680BC704780B586B0D0
:101E2C0000AF78607B68002B01D101236CE27B68EA
:101E3C001B6803F00103002B00F08780924B5B685A
:101E4C0003F00C03042B0CD08F4B5B6803F00C03DA
:101E5C00082B12D18C4B5B6803F48033B3F5803FB5
:101E6C000BD1894B1B6803F40033002B6CD07B68BF
:101E7C005B68002B68D1012346E27B685B68B3F595
:101E8C00803F06D1804B1B687F4A43F4803313603C
:101E9C002EE07B685B68002B0CD17B4B1B687A4A6D
:101EAC0023F480331360784B1B68774A23F4802328
:101EBC0013601DE07B685B68B3F5A02F0CD1724BEF
:101ECC001B68714A43F4802313606F4B1B686E4A86
:101EDC0043F4803313600BE06B4B1B686A4A23F4AA
:101EEC0080331360684B1B68674A23F480231360AC
:101EFC007B685B68002B13D0FFF7B6FC386108E0F9
:101F0C00FFF7B2FC02463B69D31A642B01D90323B9
:101F1C00FAE15D4B1B6803F40033002BF0D014E0A6
:101F2C00FFF7A2FC386108E0FFF79EFC02463B6914
:101F3C00D31A642B01D90323E6E1534B1B6803F43A
:101F4C000033002BF0D100E000BF7B681B6803F06E
:101F5C000203002B63D04C4B5B6803F00C03002B8B
:101F6C000BD0494B5B6803F00C03082B1CD1464B80
:101F7C005B6803F48033002B16D1434B1B6803F0D2
:101F8C000203002B05D07B681B69012B01D00123B8
:101F9C00BAE13D4B1B6823F0F8027B685B69DB0000
:101FAC00394913430B603AE07B681B69002B20D046
:101FBC00364B01221A60FFF757FC386108E0FFF737
:101FCC0053FC02463B69D31A022B01D903239BE134
:101FDC002D4B1B6803F00203002BF0D02A4B1B681F
:101FEC0023F0F8027B685B69DB00274913430B6025
:101FFC0015E0264B00221A60FFF736FC386108E02A
:10200C00FFF732FC02463B69D31A022B01D903239A
:10201C007AE11D4B1B6803F00203002BF0D17B68A7
:10202C001B6803F00803002B3AD07B689B69002BDC
:10203C0019D0174B01221A60FFF716FC386108E023
:10204C00FFF712FC02463B69D31A022B01D903237A
:10205C005AE10D4B5B6A03F00203002BF0D0012018
:10206C0000F09AFA1CE00A4B00221A60FFF7FCFB06
:10207C0038610FE0FFF7F8FB02463B69D31A022BDD
:10208C0008D9032340E100BF001002400000424287
:10209C00800442429E4B5B6A03F00203002BE9D1A1
:1020AC007B681B6803F00403002B00F0A680002360
:1020BC00FB75974BDB6903F08053002B0DD1944BD0
:1020CC00DB69934A43F08053D361914BDB6903F096
:1020DC008053BB60BB680123FB758E4B1B6803F4FC
:1020EC008073002B18D18B4B1B688A4A43F4807386
:1020FC001360FFF7B9FB386108E0FFF7B5FB024648
:10210C003B69D31A642B01D90323FDE0814B1B6877
:10211C0003F48073002BF0D07B68DB68012B06D1B5
:10212C007B4B1B6A7A4A43F0010313622DE07B68F8
:10213C00DB68002B0CD1764B1B6A754A23F001032C
:10214C001362734B1B6A724A23F0040313621CE084
:10215C007B68DB68052B0CD16D4B1B6A6C4A43F01A
:10216C00040313626A4B1B6A694A43F0010313624E
:10217C000BE0674B1B6A664A23F001031362644B46
:10218C001B6A634A23F0040313627B68DB68002B31
:10219C0015D0FFF769FB38610AE0FFF765FB0246D3
:1021AC003B69D31A41F28832934201D90323ABE045
:1021BC00574B1B6A03F00203002BEED014E0FFF721
:1021CC0053FB38610AE0FFF74FFB02463B69D31A19
:1021DC0041F28832934201D9032395E04C4B1B6AA0
:1021EC0003F00203002BEED1FB7D012B05D1484BF4
:1021FC00DB69474A23F08053D3617B68DB69002B92
:10220C0000F08180424B5B6803F00C03082B61D01B
:10221C007B68DB69022B46D13F4B00221A60FFF72B
:10222C0023FB386108E0FFF71FFB02463B69D31A1A
:10223C00022B01D9032367E0354B1B6803F00073B5
:10224C00002BF0D17B681B6AB3F5803F08D1304B73
:10225C005B6823F400327B689B682D4913434B6009
:10226C002B4B5B6823F474127B68196A7B685B6A7E
:10227C000B43274913434B60274B01221A60FFF78E
:10228C00F3FA386108E0FFF7EFFA02463B69D31A1C
:10229C00022B01D9032337E01D4B1B6803F000739D
:1022AC00002BF0D02FE01C4B00221A60FFF7DCFA59
:1022BC00386108E0FFF7D8FA02463B69D31A022BC3
:1022CC0001D9032320E0124B1B6803F00073002B91
:1022DC00F0D118E07B68DB69012B01D1012313E0FD
:1022EC000B4B5B68FB60FB6803F480327B681B6AFA
:1022FC009A4206D1FB6803F470127B685B6A9A42BF
:10230C0001D0012300E0002318461837BD4680BDDC
:10231C0000100240007000406000424280B584B062
:10232C0000AF786039607B68002B01D10123D0E0CD
:10233C006A4B1B6803F007033A689A4210D9674B43
:10234C001B6823F0070265493B6813430B60634B22
:10235C001B6803F007033A689A4201D00123B8E0E6
:10236C007B681B6803F00203002B20D07B681B6882
:10237C0003F00403002B05D0594B5B68584A43F417
:10238C00E06353607B681B6803F00803002B05D0E7
:10239C00534B5B68524A43F460535360504B5B6839
:1023AC0023F0F0027B689B684D4913434B607B68BC
:1023BC001B6803F00103002B40D07B685B68012B8A
:1023CC0007D1474B1B6803F40033002B15D10123B5
:1023DC007FE07B685B68022B07D1414B1B6803F0E5
:1023EC000073002B09D1012373E03D4B1B6803F0F4
:1023FC000203002B01D101236BE0394B5B6823F006
:10240C0003027B685B68364913434B60FFF72CFA79
:10241C00F8600AE0FFF728FA0246FB68D31A41F28B
:10242C008832934201D9032353E02D4B5B6803F0B0
:10243C000C027B685B689B009A42EBD1274B1B68B4
:10244C0003F007033A689A4210D2244B1B6823F01E
:10245C00070222493B6813430B60204B1B6803F0B7
:10246C0007033A689A4201D0012332E07B681B686B
:10247C0003F00403002B08D0194B5B6823F4E062D3
:10248C007B68DB68164913434B607B681B6803F061
:10249C000803002B09D0124B5B6823F460527B6855
:1024AC001B69DB000E4913434B6000F021F8024618
:1024BC000B4B5B681B0903F00F030A49CB5C22FA38
:1024CC0003F3094A1360094B1B681846FFF78AF996
:1024DC00002318461037BD4680BD00BF00200240C7
:1024EC0000100240442E0008180000201C000020A0
:1024FC0080B487B000AF0023FB600023BB600023D7
:10250C007B6100237B6000233B611E4B5B68FB609F
:10251C00FB6803F00C03042B02D0082B03D027E03C
:10252C00194B3B6127E0FB689B0C03F00F03174A28
:10253C00D35C7B60FB6803F48033002B10D0114B11
:10254C005B685B0C03F00103114AD35CBB607B68D6
:10255C000D4A02FB03F2BB68B2FBF3F37B6104E0B0
:10256C007B680C4A02FB03F37B617B693B6102E0F5
:10257C00054B3B6100BF3B6918461C37BD4680BC10
:10258C00704700BF0010024000127A00542E000861
:10259C00642E000800093D0080B485B000AF78605F
:1025AC000A4B1B680A4AA2FB03235B0A7A6802FBEC
:1025BC0003F3FB6000BFFB685A1EFA60002BF9D1D5
:1025CC0000BF00BF1437BD4680BC70471800002008
:1025DC00D34D621080B582B000AF78607B68002B61
:1025EC0001D1012341E07B6893F83D30DBB2002B35
:1025FC0006D17B68002283F83C207868FFF75AF8F4
:10260C007B68022283F83D207B681A687B68043360
:10261C001946104600F056FA7B68012283F84620D2
:10262C007B68012283F83E207B68012283F83F20DF
:10263C007B68012283F840207B68012283F84120CB
:10264C007B68012283F842207B68012283F84320B7
:10265C007B68012283F844207B68012283F84520A3
:10266C007B68012283F83D20002318460837BD46BD
:10267C0080BD000080B485B000AF78607B6893F8B3
:10268C003D30DBB2012B01D0012335E07B68022207
:10269C0083F83D207B681B68DA687B681B6842F016
:1026AC000102DA607B681B68164A934209D07B688A
:1026BC001B68B3F1804F04D07B681B68124A9342AD
:1026CC0011D17B681B689B6803F00703FB60FB68F8
:1026DC00062B10D07B681B681A687B681B6842F05D
:1026EC0001021A6007E07B681B681A687B681B682C
:1026FC0042F001021A60002318461437BD4680BC14
:10270C00704700BF002C01400004004080B584B02D
:10271C0000AF78607B681B68DB68FB607B681B68BC
:10272C001B69BB60BB6803F00203002B20D0FB6865
:10273C0003F00203002B1BD07B681B686FF00202B6
:10274C001A617B6801221A777B681B689B6903F00E
:10275C000303002B03D0786800F098F905E0786843
:10276C0000F08BF9786800F09AF97B6800221A77F0
:10277C00BB6803F00403002B20D0FB6803F00403B8
:10278C00002B1BD07B681B686FF004021A617B68FE
:10279C0002221A777B681B689B6903F44073002B39
:1027AC0003D0786800F072F905E0786800F065F9FC
:1027BC00786800F074F97B6800221A77BB6803F024
:1027CC000803002B20D0FB6803F00803002B1BD060
:1027DC007B681B686FF008021A617B6804221A7709
:1027EC007B681B68DB6903F00303002B03D078685C
:1027FC0000F04CF905E0786800F03FF9786800F0DB
:10280C004EF97B6800221A77BB6803F01003002B8B
:10281C0020D0FB6803F01003002B1BD07B681B68D7
:10282C006FF010021A617B6808221A777B681B68AC
:10283C00DB6903F44073002B03D0786800F026F9B1
:10284C0005E0786800F019F9786800F028F97B68E1
:10285C0000221A77BB6803F00103002B0CD0FB6835
:10286C0003F00103002B07D07B681B686FF001029B
:10287C001A617868FEF740F8BB6803F08003002B00
:10288C000CD0FB6803F08003002B07D07B681B681F
:10289C006FF080021A61786800F06FFABB6803F081
:1028AC004003002B0CD0FB6803F04003002B07D037
:1028BC007B681B686FF040021A61786800F0F8F8CA
:1028CC00BB6803F02003002B0CD0FB6803F0200343
:1028DC00002B07D07B681B686FF020021A617868A8
:1028EC0000F042FA00BF1037BD4680BD80B584B001
:1028FC0000AF786039600023FB737B6893F83C3041
:10290C00012B01D10223B4E07B68012283F83C2027
:10291C007B68022283F83D207B681B689B68BB6048
:10292C00BB6823F07703BB60BB6823F47F43BB60B9
:10293C007B681B68BA689A603B681B68B3F5005FDC
:10294C003ED0B3F5005F00F28780B3F5805F00F0F6
:10295C008680B3F5805F7FD8702B1AD0702B7BD814
:10296C00602B50D0602B77D8502B3CD0502B73D889
:10297C00402B58D0402B6FD8302B64D0302B6BD8D9
:10298C00202B60D0202B67D8002B5CD0102B5AD07A
:10299C0062E07B6818683B6899683B685A683B68DA
:1029AC00DB6800F06AF97B681B689B68BB60BB68DE
:1029BC0043F07703BB607B681B68BA689A604FE092
:1029CC007B6818683B6899683B685A683B68DB68A9
:1029DC0000F053F97B681B689A687B681B6842F4AB
:1029EC0080429A603CE07B6818683B6859683B6899
:1029FC00DB681A4600F0CAF87B681B685021184641
:102A0C0000F021F92CE07B6818683B6859683B683A
:102A1C00DB681A4600F0E8F87B681B6860211846F2
:102A2C0000F011F91CE07B6818683B6859683B683A
:102A3C00DB681A4600F0AAF87B681B684021184630
:102A4C0000F001F90CE07B681A683B681B681946BA
:102A5C00104600F0F8F803E00123FB7300E000BF20
:102A6C007B68012283F83D207B68002283F83C20A0
:102A7C00FB7B18461037BD4680BD80B483B000AFD9
:102A8C00786000BF0C37BD4680BC704780B483B003
:102A9C0000AF786000BF0C37BD4680BC704780B477
:102AAC0083B000AF786000BF0C37BD4680BC704768
:102ABC0080B483B000AF786000BF0C37BD4680BCDB
:102ACC007047000080B485B000AF786039607B68D7
:102ADC001B68FB607B682B4A934207D07B68B3F181
:102AEC00804F03D07B68284A934208D1FB6823F0BF
:102AFC007003FB603B685B68FA681343FB607B68A0
:102B0C00204A934207D07B68B3F1804F03D07B6897
:102B1C001D4A934208D1FB6823F44073FB603B6869
:102B2C00DB68FA681343FB60FB6823F080023B68A8
:102B3C005B691343FB607B68FA681A603B689A68B0
:102B4C007B68DA623B681A687B689A627B680D4A1C
:102B5C00934203D13B681A697B681A637B68012234
:102B6C005A617B681B6903F00103002B05D07B685D
:102B7C001B6923F001027B681A6100BF1437BD4644
:102B8C0080BC7047002C01400004004080B487B02A
:102B9C0000AFF860B9607A60FB681B6A7B61FB6808
:102BAC001B6A23F00102FB681A62FB689B693B619C
:102BBC003B6923F0F0033B617B681B013A691343CB
:102BCC003B617B6923F00A037B617A69BB68134321
:102BDC007B61FB683A699A61FB687A691A6200BF8B
:102BEC001C37BD4680BC704780B487B000AFF8601E
:102BFC00B9607A60FB681B6A7B61FB681B6A23F017
:102C0C001002FB681A62FB689B693B613B6923F409
:102C1C0070433B617B681B033A6913433B617B69DF
:102C2C0023F0A0037B61BB681B017A6913437B61B2
:102C3C00FB683A699A61FB687A691A6200BF1C37B3
:102C4C00BD4680BC704780B485B000AF78603960F9
:102C5C007B689B68FB60FB6823F07003FB603A6841
:102C6C00FB68134343F00703FB607B68FA689A60C8
:102C7C0000BF1437BD4680BC704780B487B000AF2E
:102C8C00F860B9607A603B60FB689B687B617B692C
:102C9C0023F47F437B613B681A027B681A43BB6851
:102CAC0013437A6913437B61FB687A699A6000BFAE
:102CBC001C37BD4680BC704780B485B000AF7860CF
:102CCC0039607B6893F83C30012B01D1022341E041
:102CDC007B68012283F83C207B68022283F83D202C
:102CEC007B681B685B68FB607B681B689B68BB60D0
:102CFC00FB6823F07003FB603B681B68FA681343A6
:102D0C00FB607B681B68FA685A607B681B68144A16
:102D1C00934209D07B681B68B3F1804F04D07B6869
:102D2C001B68104A93420CD1BB6823F08003BB6034
:102D3C003B685B68BA681343BB607B681B68BA6806
:102D4C009A607B68012283F83D207B68002283F81F
:102D5C003C20002318461437BD4680BC704700BF8A
:102D6C00002C01400004004080B483B000AF7860B8
:102D7C0000BF0C37BD4680BC704780B483B000AF39
:102D8C00786000BF0C37BD4680BC704770B500261C
:102D9C000C4D0D4C641BA410A64209D100F022F876
:102DAC0000260A4D0A4C641BA410A64205D170BD26
:102DBC0055F8043B98470136EEE755F8043B984725
:102DCC000136F2E7682E0008682E0008682E00080D
:102DDC006C2E000803460244934200D1704703F85E
:102DEC00011BF9E7F8B500BFF8BC08BC9E4670475C
:0C2DFC00F8B500BFF8BC08BC9E4670474C
:102E080000080140010000000008014000400000E7
:102E18000008014000800000C0F9A4B0999282F82F
:102E280080900000020000041000800004000008E8
:102E3800200000010800001040000002000000000F
:102E48000000000001020304060708090203040544
:102E5800060708090A0B0C0D0E0F101001020000DE
:042E6800310100082C
:042E6C000D0100084C
:102E70000100000007000000020000000500000043
:102E8000010000000100000000127A0010000000A4
:042E9000010000003D
:04000005080017795F
:00000001FF
